:100000000A128A11F32FFF1B0D2883137F18831701
:100010000008840A0319FF0A080000308A00040857
:10002000840A82070034533431342034203420349D
:1000300020345334323420342034203420345334A8
:040040003334003421
:10036000F000700883120313880008006400800105
:10037000840A0406031900340406B7290A128A11F4
:10038000DA210A128A1183160313111408000A12C3
:100390008A11DA210A128A11831603131115080033
:1003A0000A128A11DA210A128A11700883120313C1
:1003B00093000800831603131419DF29E029DA29B2
:1003C00011081F39031DE529E629DA290800F20082
:1003D00072080A128A11B0210A128A1183120313B9
:1003E0008914091109140D30F100F10BF52983125C
:1003F000031309100800F300F201731C002A012AFC
:10040000052A7008F1007108F2070310F00D0310BF
:10041000F30C7308031D0D2A0E2AFD29720808002B
:10042000F30073080A128A11B0210A128A1183128A
:1004300003138910091109140730F2007D30F1000F
:10044000F10B202AF20B202A831203130910080053
:1004500038300A128A1110220A128A1106300A1242
:100460008A1110220A128A110C300A128A111022E3
:100470000A128A1180300A128A1110220A128A1175
:100480000800F6007603031D462A472A532A7408FB
:100490007F3EF5007508F70077080A128A111022CE
:1004A0000A128A11642A02307606031D582A592A34
:1004B000642A7408BF3EF5007508F70077080A1231
:1004C0008A1110220A128A110800F401F501701C29
:1004D0006A2A6B2A712A7208F4070318F50A73084E
:1004E000F50701300310F20DF30DFF3E031D722AD4
:1004F00001300310F10CF00CFF3E031D792A700847
:100500007104031D842A852A672A7508F10074087E
:10051000F00008008316031788018901831603136E
:1005200085018601880189018312031385018601F3
:1005300088018901831603130F168F160F170030D9
:1005400083120313B9000130B8008630B700A03021
:10055000B6000A128A11DD220A128A1108000A1254
:100560008A11DA210A128A118316031391150A12CD
:100570008A11DA210A128A11831203131308F20076
:10058000F3017208F4007308F5000A128A11DA21E7
:100590000A128A1170037104031DCF2AD02AD42AAB
:1005A000831603139112D72A83160313911611167B
:1005B0007508F1007408F000080028308312031356
:1005C0009400831603139101831203133608BA00B3
:1005D0003708BB003808BC003908BD0002300310E2
:1005E000BA0DBB0DBC0DBD0DFF3E031DEF2A3D082E
:1005F000F3003C08F2003B08F1003A08F00000303C
:10060000F7007A30F6001230F5000030F4000A12DC
:100610008A111A240A128A117008FF3E83160313E6
:1006200093009401871507160800F2002B2B303039
:10063000532B3130532B3230532B3330532B343038
:10064000532B3530532B3630532B3730532B383018
:10065000532B3930532B7208F000F1017108003A26
:100660000319332B172B7008003A0319172B013A83
:100670000319192B033A03191B2B013A03191D2BDC
:10068000073A03191F2B013A0319212B033A0319C7
:10069000232B013A0319252B0F3A0319272B013A73
:1006A0000319292B172B08000A30F6000030F70039
:1006B000831203133308FB00FC017B08F8007C085D
:1006C000F9000A128A1180240A128A117608FD00A4
:1006D0007D0883120313AD00F630FB007B08F000A9
:1006E0002D080A128A11FB210A128A1183120313A0
:1006F0003307FC007C08AA002D080A128A11152372
:100700000A128A11FB007B0883120313A4002A0833
:100710000A128A1115230A128A11FB007B08831220
:100720000313A1000800F801F901B82B780873073A
:10073000F6007408F5000318F50AF81FA02BF5035E
:100740007508F700770883120313FF00760884000A
:100750000A128A1103200A128A110A128A11E72149
:100760000A128A110130F8070318F90A0030F90754
:1007700078087307F6007408F5000318F50AF81FE7
:10078000C22BF5037508F700770883120313FF00E7
:10079000760884000A128A1103200A128A11003A8C
:1007A000031DD32BD42B962B080083120313C600F2
:1007B0002808F2007208B6002E30F2007208B70066
:1007C0002508F2007208B8002208F2007208B90089
:1007D0007630F2007208BA002030F2007208BB00D6
:1007E0002030F2007208BC002408F2007208BD003C
:1007F0002108F2007208BE002030F2007208BF002B
:100800002030F2007208C0004608F2007208C100F1
:100810007008F2007208C2007108F2007208C3008A
:10082000DF30F2007208C4004330F2007208C500E5
:10083000363008000030FC000030FB000030FA00C9
:100840000030F90073087204710470040319292C34
:100850002A2C772CFD01FD0A3A2C0130F8000310F8
:10086000F00DF10DF20DF30DF80B2F2C0130F80007
:100870007808FD07F31F3D2C3E2C2D2C0130F8008D
:100880000310F90DFA0DFB0DFC0DF80B402C73084D
:100890007702031D552C72087602031D552C710832
:1008A0007502031D552C70087402031C582C592C1A
:1008B000682C7008F4027108031C710FF5027208AD
:1008C000031C720FF6027308031C730FF7027914EE
:1008D00001300310F30CF20CF10CF00CFF3E031D81
:1008E000692C0130FD02031D762C772C3E2C7C08F0
:1008F000F3007B08F2007A08F1007908F0000800A4
:1009000083120313B701F71F862C872C8E2CF60950
:10091000F709F60A0319F70AB701B70AF91F912C6C
:10092000922C9B2CF809F909F80A0319F90A0130ED
:10093000FA007A08B706B801B901760877040319F6
:10094000A22CA32CDA2CB601B60AB12C013003106C
:10095000F60DF70DFF3E031DA72C0130FA007A08B3
:10096000B607F71FB42CB52CA62C01300310B80D18
:10097000B90DFF3E031DB62C77087902031DC22C6A
:1009800076087802031CC52CC62CCD2C7608F802FC
:100990007708031CF903F902381401300310F70C2F
:1009A000F60CFF3E031DCE2C0130B602031DD92CE0
:1009B000DA2CB52C37080319DE2CDF2CE42CB8090F
:1009C000B909B80A0319B90A3908F7003808F60056
:1009D00008003330F6000030F700831203133508A7
:1009E000BA00BB013A08F8003B08F9000A128A1164
:1009F00080240A128A11760883120313BC003C0873
:100A0000B1003330F6000030F7003508BA00BB0102
:100A10003A08F0003B08F1000A30F2000030F30021
:100A20000A128A1165220A128A117108F9007008E7
:100A3000F8000A128A1180240A128A117608831299
:100A40000313BC007708BD00F630BE003E08F0007E
:100A500031080A128A11FB210A128A118312031328
:100A60003C07BF003F08AE003330F6000030F7000F
:100A70003508BA00BB013A08F0003B08F1006430C9
:100A8000F2000030F3000A128A1165220A128A115C
:100A90007108F9007008F8000A128A1180240A12FD
:100AA0008A11760883120313BC007708BD009C30BE
:100AB000BE003E08F00031080A128A11FB210A121A
:100AC0008A1183120313BF00F630C0004008F00003
:100AD0002E080A128A11FB210A128A1183120313AB
:100AE0003F073C07C1004108AB0031080A128A11D8
:100AF00015230A128A1183120313BA003A08A800B8
:100B00002E080A128A1115230A128A11831203135E
:100B1000BA003A08A5002B080A128A1115230A12F6
:100B20008A1183120313BA003A08A2000800443065
:100B3000831203133402031C9E2D9F2D412E23305C
:100B4000F6000030F7003408BA00BB013A08F000A4
:100B50003B08F1001830F2000030F3000A128A114D
:100B600065220A128A117108F9007008F8000A1249
:100B70008A1180240A128A117608D23E8312031346
:100B8000BC003C08B2006430F6000030F7003208C8
:100B9000BA00BB013A08F8003B08F9000A128A11B2
:100BA00080240A128A11760883120313BC003C08C1
:100BB000AF000A30F6000030F7002F08BA00BB0182
:100BC0003A08F0003B08F1009C30F200FF30F300DF
:100BD0000A128A1165220A128A118312031332083B
:100BE0007007F80071080318710AF9000A128A11D7
:100BF00080240A128A11760883120313BC003C0871
:100C0000AC009C30BA003A08F0002F080A128A1192
:100C1000FB210A128A1183120313BB00F630BC00B9
:100C20003C08F0002C080A128A11FB210A128A11D2
:100C3000831203133B073207BD003D08A9002F08AC
:100C40000A128A1115230A128A1183120313BA0099
:100C50003A08A6002C080A128A1115230A128A11D2
:100C600083120313BA003A08A30029080A128A1152
:100C700015230A128A1183120313BA003A08A0003E
:100C8000A52E1330F6000030F7003408BA00BB017F
:100C90003A08F0003B08F1000D30F2000030F3009C
:100CA0000A128A1165220A128A117108F900700865
:100CB000F8000A128A1180240A128A1176082E3C42
:100CC00083120313BC003C08B2002D30BA003A086E
:100CD000A6000A30F6000030F7003208BA00BB0167
:100CE0003A08F8003B08F9000A128A1180240A1217
:100CF0008A11760883120313BC003C08AC00F6305E
:100D0000BA003A08F0002C080A128A11FB210A12D4
:100D10008A11831203133207BB003B08A9002C0879
:100D20000A128A1115230A128A1183120313BA00B8
:100D30003A08A30029080A128A1115230A128A11F7
:100D400083120313BA003A08A00008000A128A119D
:100D50008A220A128A110A128A1128220A128A1178
:100D6000F401F40A01300A128A1141220A128A118E
:100D70000130F3008030F4000A128A1193230A1222
:100D80008A11F401F40A02300A128A1141220A126D
:100D90008A11831203132308C7004708F0002008B4
:100DA000C8004808F10026080A128A11D5230A1241
:100DB0008A11F3000030F4000A128A1193230A12F8
:100DC0008A110A128A11E9240A128A110A128A1156
:100DD00054230A128A110A128A1197250A128A11BB
:100DE0000A128A11BE210A128A115030F000003016
:100DF000F1000A128A11D0210A128A110030F00083
:100E0000F1000A128A11D0210A128A110A128A11DB
:100E1000C7210A128A111A3083120313C800F7304F
:100E2000C700C70B112FC80B112F162F0A128A11DA
:100E3000BE210A128A115130F0000030F1000A126E
:100E40008A11D0210A128A110030F000F1000A1232
:100E50008A11AF220A128A11700883120313C70085
:100E60004708B5000A128A11C7210A128A111A30DE
:100E700083120313C800F730C700C70B3D2FC80B00
:100E80003D2F422F0A128A11BE210A128A116030A8
:100E9000F0000030F1000A128A11D0210A128A11E2
:100EA0000030F000F1000A128A11D0210A128A11D2
:100EB0000A128A11C7210A128A111A3083120313E7
:100EC000C800F730C700C70B632FC80B632F682F0C
:100ED0000A128A11BE210A128A116130F000003014
:100EE000F1000A128A11D0210A128A110030F00092
:100EF000F1000A128A11AF220A128A1170088312B5
:100F00000313C7004708B3000A128A11C7210A1247
:100F10008A111A3083120313C800F730C700C70BB9
:100F20008F2FC80B8F2F942F0A128A11BE210A12FD
:100F30008A118030F0000030F1000A128A11D021AD
:100F40000A128A11F330F0000030F1000A128A11FF
:100F5000D0210A128A110A128A11C7210A128A1193
:100F6000023083120313C9000430C800B930C7002F
:100F7000C70BB82FC80BB82FC90BB82FBF2F0A1239
:100F80008A11BE210A128A118130F0000030F1006E
:100F90000A128A11D0210A128A110030F000F100E1
:100FA0000A128A11AF220A128A11700883120313DF
:100FB000C7004708B4000A128A11C7210A128A1111
:100FC000023083120313C9000430C800B930C700CF
:100FD000C70BE82FC80BE82FC90BE82FEF2FB02E57
:100FE0000A128A11002883132030840036300A1236
:100FF0008A11B6210A128A1183010A128A11A62EB9
:04400E00D420FF3F7C
:00000001FF
