:060000000A128A110C280F
:10000800FE00030EF1000A08F2000A128A11BD2848
:100018000A128A110F28F701F801F901FA01830180
:100028000A128A119B29F6002D28831203131F1721
:100038009F138628831203131F139F178628831282
:1000480003131F179F178628831203131F139F1369
:1000580086287608F400F5017508003A0319352852
:1000680028287408013A03191928033A03191E2885
:10007800013A0319232828281F119F111F129F12C4
:10008800B7281F159F111F129F12B7281F119F1500
:100098001F129F12B7281F159F151F129F12B728EE
:1000A8001F119F111F169F12B7281F159F111F168A
:1000B8009F12B7281F119F151F169F12B7281F15CB
:1000C8009F151F169F12B7281F119F111F129F16E9
:1000D800B7281F159F111F129F16B7281F119F15AC
:1000E8001F129F16B7281F159F151F129F16B72896
:1000F8001F119F111F169F16B7281F159F111F1636
:100108009F16B7287308F400F5017508003A03191B
:100118008E2840287408013A03194528033A031920
:100128004A28013A03194F28073A03195428013A73
:1001380003195928033A03195E28013A0319632859
:100148000F3A03196828013A03196D28033A03196D
:100158007228013A03197728073A03197C28013ACB
:100168000319812840289F101F14831603139F0129
:1001780008000B1DC028C128CA280B11D8308312CB
:10018800031381000130F0007008F707831203138E
:100198000C1FCF28D028D5280C131E08F000700893
:1001A800F8008C1DD828D9282F291412141BDD28F3
:1001B800DE28E228941FE128E228E9281308F00045
:1001C8007008FA0014139413141683160313941A60
:1001D800EE28EF280B291419F228F3280B2983128B
:1001E80003131308F0007008FA008C111416831614
:1001F8000313141C00290129FB2883120313130875
:1002080088000630F000F00B072900002C29941A0A
:100218000E290F292C29141D122913292C29831280
:1002280003131308F0007008FA0083160313141060
:10023800780883120313930014160630F000F00BAD
:10024800232900008316031314182B292C29262987
:10025800831203138C1172088A00710E8300FE0E3C
:100268007E0E090083160317880189010130880072
:10027800831603130514860188018312031385016D
:10028800860188018B160C13831603130F168F161D
:100298000F17143083120313A0002008F300143042
:1002A8000A128A1117200A128A11831603139F0152
:1002B800D83083120313810057308316031381004B
:1002C8000C1750300A128A116C210A128A11080080
:1002D800F300730883160313930036308312031355
:1002E8009400803083160313940001309100871521
:1002F80007168B170B17831203138C11831603131E
:100308008C15080006307702031C8B298C299A2942
:10031800F701831203139F141430A0002008F30080
:1003280001300A128A1117200A128A1108000A12CB
:100338008A1136210A128A110A128A1186210A1292
:100348008A117808831203138600A0290A128A11D9
:020358000C286F
:04400E00D420FF3F7C
:00000001FF
