:060000000A128A110C280F
:10000800FE00030EF7000A08F8000A128A111928E0
:100018000A128A110F28F001F101F201F301F4012B
:10002800F50183010A128A110C290B1C1C281D28B2
:1000380061280B1000308312031306180130F300F7
:100048007308031D282829282A28F2017208031D8D
:100058002E282F2841287303031D332834284128CC
:100068000130F60076088807F201F20A103008021B
:10007800031C3F2840284128880100308618013099
:10008800F1007108031D49284A284B28F00170081F
:10009800031D4F28502861287103031D5428552833
:1000A800612801308802F001F00A080A031D5D2862
:1000B8005E2861280F3088006128831203138C1D85
:1000C80066286728BD281412141B6B286C28702812
:1000D800941F6F28702877281308F6007608F50013
:1000E80014139413141683160313941A7C287D286A
:1000F8009928141980288128992883120313130832
:10010800F6007608F5008C11141683160313141CD8
:100118008E288F2889288312031313088500063038
:10012800F600F60B95280000BA28941A9C289D28FA
:10013800BA28141DA028A128BA288312031313086B
:10014800F6007608F50083160313141083120313C0
:100158000808930014160630F600F60BB1280000C4
:10016800831603131418B928BA28B4288312031362
:100178008C1178088A00770E8300FE0E7E0E090027
:100188008316031788018901831603138501033039
:1001980086008801831203138501860188018B1666
:1001A8000C130B108B150B118316031316149614CE
:1001B800151495140F168F160F179F01D830831238
:1001C8000313810057308316031381000C17603026
:1001D8000A128A11F2200A128A110800F900790815
:1001E8008316031393003630831203139400803070
:1001F80083160313940001309100871507168B1797
:100208000B17831203138C11831603138C15080024
:100218000A128A11C4200A128A11831203130808C9
:0E022800FA007A08FB0011290A128A110C282C
:04400E00D420FF3F7C
:00000001FF
